:020000040800F2
:10000000680600208901000889040008BB03000875
:100010008504000843020008E90B00080000000006
:10002000000000000000000000000000950500082E
:100030004702000800000000510500088106000882
:10004000A3010008A3010008A3010008A301000800
:10005000A3010008A3010008A3010008A3010008F0
:10006000A3010008A3010008A3010008A3010008E0
:10007000A3010008A3010008A3010008A3010008D0
:10008000A3010008A3010008A3010008A3010008C0
:10009000A3010008A3010008A3010008A3010008B0
:1000A000A3010008A3010008A3010008A3010008A0
:1000B000A3010008A3010008A3010008A301000890
:1000C000A3010008A3010008A3010008A301000880
:1000D000A3010008A3010008A3010008A301000870
:1000E00049020008A3010008A301000800F002F87B
:1000F00000F03AF80AA090E8000C82448344AAF188
:100100000107DA4501D100F02FF8AFF2090EBAE885
:100110000F0013F0010F18BFFB1A43F0010318473B
:10012000EC0A00000C0B0000103A24BF78C878C11C
:10013000FAD8520724BF30C830C144BF04680C60ED
:10014000704700000023002400250026103A28BF35
:1001500078C1FBD8520728BF30C148BF0B60704739
:100160001FB51FBD10B510BD00F031F81146FFF7E7
:10017000F7FF00F03BFD00F04FF803B4FFF7F2FF8C
:1001800003BC00F057F800000948804709480047C1
:10019000FEE7FEE7FEE7FEE7FEE7FEE7FEE7FEE737
:1001A000FEE7FEE704480549054A064B7047000094
:1001B00085060008ED0000086800002068060020A1
:1001C000680200206802002070477047704775463B
:1001D00000F02CF8AE4605006946534620F00700B3
:1001E000854618B020B5FFF7DDFFBDE820404FF091
:1001F00000064FF000074FF000084FF0000B21F011
:100200000701AC46ACE8C009ACE8C009ACE8C009DD
:10021000ACE8C0098D46704710B50446AFF30080C6
:100220002046BDE81040FFF7A8BF00000048704717
:100230000400002001491820ABBEFEE726000200A2
:10024000704700BFFEE7704710B54FF4804000F0E4
:1002500015F8012808D105480088401C034908808A
:100260004FF4804000F004F810BD000000000020B2
:100270000149086070470000140401400146002055
:100280000022074B1B6803EA0102054B14331B686D
:100290000B4013B10AB1012000E0002070470000BC
:1002A000000401402DE9F04102460025002600200F
:1002B00000230024002791F803C00CF00F0591F8EB
:1002C00003C00CF0100CBCF1000F03D091F802C079
:1002D0004CEA050591F800C0BCF1000F31D014685C
:1002E00000202BE04FF0010C0CFA00F3B1F800C035
:1002F0000CEA03069E4220D183004FF00F0C0CFA4B
:1003000003F7BC4305FA03FC4CEA040491F803C06C
:10031000BCF1280F06D14FF0010C0CFA00FCC2F81A
:1003200014C00AE091F803C0BCF1480F05D14FF0AA
:10033000010C0CFA00FCC2F810C0401C0828D1D3F4
:100340001460B1F800C0BCF1FF0F34DD5468002028
:100350002EE000F1080C4FF0010808FA0CF3B1F898
:1003600000C00CEA03069E4221D183004FF00F0C1F
:100370000CFA03F7BC4305FA03FC4CEA040491F8B9
:1003800003C0BCF1280F05D100F1080C08FA0CF8E5
:10039000C2F8148091F803C0BCF1480F07D100F1F6
:1003A000080C4FF0010808FA0CF8C2F81080401C45
:1003B0000828CED35460BDE8F08100BFFEE70000FE
:1003C00010B5044800F0BAFA401C034991FBF0F064
:1003D00080B210BD0004004040420F0000B587B05D
:1003E0000121042000F0C6F848208DF81B004020B1
:1003F000ADF8180003208DF81A0006A91F48FFF772
:1004000051FF0121022000F0A5F81D4800F0F9FA83
:100410000020ADF81200ADF80E004FF6FF70ADF8F9
:1004200010004720ADF80C0000208DF8140003A93F
:10043000134800F087FB684600F0DAFA0020ADF8B8
:1004400000000F20ADF808000020ADF80200ADF864
:1004500006000120ADF804006946094800F072FA70
:100460005021074800F02DFB0421054800F032FB25
:100470000121034800F056FA07B000BD0008014012
:100480000004004000BFFEE77047000000B589B0DF
:100490000121084600F05EF84FF0804000F0B1FA0C
:1004A0000121042000F056F818208DF823000120C7
:1004B000ADF8200003208DF8220008A91848FFF7A6
:1004C000F1FE0020ADF81A00ADF816006320ADF87B
:1004D000180040F29F50ADF8140000208DF81C0069
:1004E00005A94FF0804000F02DFB01A800F0DCFAD8
:1004F0006020ADF804000120ADF806001420ADF82E
:100500000A000020ADF80C0001A94FF0804000F077
:100510007FFA0121880700F005FA09B000BD00004C
:100520000008014010B5044621464FF0804000F01D
:10053000DAFA10BD70B504464FF6804090FBF4F037
:1005400085B2002229464FF0804000F0B7FA70BD16
:100550007047000029B1064AD2690243044BDA61B0
:1005600004E0034AD2698243014BDA61704700001C
:100570000010024029B1064A92690243044B9A6175
:1005800004E0034A92698243014B9A61704700007C
:1005900000100240704710B500F002F810BD0000D6
:1005A0000CB50020019000903348006840F4803082
:1005B0003149086000BF3048006800F40030009006
:1005C0000198401C0190009818B90198B0F5A06FEF
:1005D000F1D12948006800F4003010B101200090EA
:1005E00001E0002000900098012843D123480068D2
:1005F00040F01000214908600846006820F0030020
:1006000008600846006840F0020008601A48406828
:10061000194948600846406848600846406840F408
:10062000806048600846406820F47C1048600846B6
:10063000406840F4E81048600846006840F0807068
:10064000086000BF0C48006800F000700028F9D076
:100650000948406820F003000749486008464068A0
:1006600040F00200486000BF0348406800F00C0002
:100670000828F9D10CBD0000001002400020024003
:100680007047000010B51348006840F001001149A0
:10069000086008464068104908400E49486008460E
:1006A00000680E4908400B4908600846006820F4BD
:1006B000802008600846406820F4FE0048604FF43F
:1006C0001F008860FFF767FF4FF000600449086073
:1006D00010BD0000001002400000FFF8FFFFF6FE12
:1006E00008ED00E0F0B50C46154600220021068C0E
:1006F0004FF6FE773E400684028B018C4FF60C7657
:1007000032407E1C06EA03162E433243104EB0429E
:100710000ED0104EB0420BD0B0F1804F08D00E4E2C
:10072000B04205D00D4EB04202D00D4EB04206D1BF
:100730004FF6FD76314044F00106314305E04FF6B7
:10074000F576314044F00106314302830184F0BD67
:10075000002C01400034014000040040000800402B
:10076000000C0040F0B50C46154600220021002682
:10077000078C4FF6EF7C07EA0C070784028B018C8D
:100780004FF6FF7707EA041640F6FF473A404FF668
:10079000FF7707EA03373A434FF6FF7707EA052763
:1007A0003A43114FB8420ED0104FB8420BD0B0F1BF
:1007B000804F08D00E4FB84205D00E4FB84202D03D
:1007C0000D4FB84206D14FF6DF77394046F010079B
:1007D000394305E04FF65F77394044F0100739435D
:1007E00002830184F0BD0000002C01400034014070
:1007F0000004004000080040000C0040F0B50C462A
:100800001546002200210026078C4FF6FF6C07EAF0
:100810000C070784828B018C4FF6FF7707EA0426CA
:100820004FF60C773A404FF6FF7707EA03172F434E
:100830003A43114FB8420ED0104FB8420BD0B0F12E
:10084000804F08D00E4FB84205D00E4FB84202D0AC
:100850000D4FB84206D14FF6FF57394046F4807726
:10086000394305E04FF2FF57394044F4807739436C
:1008700082830184F0BD0000002C0140003401405F
:100880000004004000080040000C0040F0B50C4699
:100890001546002200210026078C4EF6FF7C07EA51
:1008A0000C070784828B018C4FF6FF7707EA04362A
:1008B00040F6FF473A404FF6FF7707EA05273A43ED
:1008C0004FF6FF7707EA03373A43114FB8420ED08D
:1008D000104FB8420BD0B0F1804F08D00E4FB84245
:1008E00005D00E4FB84202D00D4FB84206D14DF69A
:1008F000FF77394046F48057394305E047F6FF5704
:10090000394044F48057394382830184F0BD0000AC
:10091000002C014000340140000400400008004069
:10092000000C004021B1028842F00102028004E084
:1009300002884FF6FE731A40028070470146888E87
:100940007047000070B505460C46244885420ED01D
:10095000234885420BD0B5F1804F08D0214885420D
:1009600005D02148854202D02048854200D100E0D0
:1009700000BF208850B92389A28861882846FFF7E4
:10098000B1FEE188284600F0B0F825E02088042870
:100990000AD12389A28861882846FFF7E3FEE1880F
:1009A000284600F0ABF817E0208808280AD12389F0
:1009B000A28861882846FFF721FFE188284600F0D9
:1009C000AAF809E02389A28861882846FFF75EFF1C
:1009D000E188284600F0A8F870BD0000002C014016
:1009E000003401400004004000080040000C0040BA
:1009F000002101804180012181800021C18001818D
:100A0000704701894FF6F87211400181704700006C
:100A100070B5002400220023058C4FF6FE76354089
:100A20000584028C8388048B4FF68F752C40B51E8D
:100A30002C400D882C43751E2A400D892A434D8871
:100A40002A43144DA8420BD0134DA84208D0134D91
:100A5000A84205D0124DA84202D0124DA84213D18F
:100A60004FF6F7752A404D892A434FF6FB752A4009
:100A70008D882A434FF6FF652B404FF6FF552B40DC
:100A80008D892B43CD892B4383800483CD88858634
:100A9000028470BD002C0140003401400040014040
:100AA00000440140004801400021018041808180D4
:100AB000C180018141818181C1817047018582822C
:100AC00070470A46002101894FF68F731940114380
:100AD0000181704702894FF6F8731A40028102893A
:100AE0000A430281704781867047028B4FF6F37389
:100AF0001A400283028B0A4302837047028B4FF233
:100B0000FF331A400283028B4FF6FF7303EA01237F
:100B10001A4302837047828B4FF6F3731A40828325
:100B2000828B0A4382837047828B4FF2FF331A40D5
:100B30008283828B4FF6FF7303EA01231A43828379
:100B400070470000002202881D4B98420ED01D4BBA
:100B500098420BD0B0F1804F08D01B4B984205D083
:100B60001A4B984202D01A4B984204D14FF68F7319
:100B70001A404B881A43174B984207D0164B98429D
:100B800004D04FF6FF431A40CB881A4302808B886B
:100B900083850B8803850A4B98420BD0094B9842FA
:100BA00008D00E4B984205D00D4B984202D00D4B09
:100BB000984201D10B7A038601238382704700009B
:100BC000002C0140003401400004004000080040B7
:100BD000000C0040001000400014004000400140A4
:100BE000004401400048014000BFFEE7FFF74EFC13
:100BF000FFF7F4FB4FF47A70FFF79CFC3220FFF70D
:100C000091FC01E0FFF7DCFBFCE700002C0C000886
:100C1000000000200400000028010008300C00083B
:100C200004000020640600004401000800000000E9
:04000005080000ED02
:00000001FF
