:020000040800F2
:10000000680600208901000809040008D5030008DB
:100010000504000843020008190800080000000059
:10002000000000000000000000000000D5040008EF
:10003000470200080000000091040008C105000804
:10004000A3010008A3010008A3010008A301000800
:10005000A3010008A3010008A3010008A3010008F0
:10006000A3010008A3010008A3010008A3010008E0
:10007000A3010008A3010008A3010008A3010008D0
:10008000A3010008A3010008A3010008A3010008C0
:10009000A3010008A3010008A3010008A3010008B0
:1000A000A3010008A3010008A3010008A3010008A0
:1000B00025060008A3010008A3010008A301000809
:1000C000A3010008A3010008A3010008A301000880
:1000D000A3010008A3010008A3010008A301000870
:1000E00049020008A3010008A301000800F002F87B
:1000F00000F03AF80AA090E8000C82448344AAF188
:100100000107DA4501D100F02FF8AFF2090EBAE885
:100110000F0013F0010F18BFFB1A43F0010318473B
:100120001C0700003C070000103A24BF78C878C1C3
:10013000FAD8520724BF30C830C144BF04680C60ED
:10014000704700000023002400250026103A28BF35
:1001500078C1FBD8520728BF30C148BF0B60704739
:100160001FB51FBD10B510BD00F031F81146FFF7E7
:10017000F7FF00F053FB00F04FF803B4FFF7F2FF76
:1001800003BC00F057F800000948804709480047C1
:10019000FEE7FEE7FEE7FEE7FEE7FEE7FEE7FEE737
:1001A000FEE7FEE704480549054A064B7047000094
:1001B000C5050008ED000008680000206806002062
:1001C000680200206802002070477047704775463B
:1001D00000F02CF8AE4605006946534620F00700B3
:1001E000854618B020B5FFF7DDFFBDE820404FF091
:1001F00000064FF000074FF000084FF0000B21F011
:100200000701AC46ACE8C009ACE8C009ACE8C009DD
:10021000ACE8C0098D46704710B50446AFF30080C6
:100220002046BDE81040FFF7A8BF00000048704717
:100230000400002001491820ABBEFEE726000200A2
:10024000704700BFFEE7704710B54FF4804000F0E4
:1002500015F8012808D105480088401C034908808A
:100260004FF4804000F004F810BD000000000020B2
:100270000149086070470000140401400146002055
:100280000022074B1B6803EA0102054B14331B686D
:100290000B4013B10AB1012000E0002070470000BC
:1002A000000401402DE9F04102460025002600200F
:1002B00000230024002791F803C00CF00F0591F8EB
:1002C00003C00CF0100CBCF1000F03D091F802C079
:1002D0004CEA050591F800C0BCF1000F31D014685C
:1002E00000202BE04FF0010C0CFA00F3B1F800C035
:1002F0000CEA03069E4220D183004FF00F0C0CFA4B
:1003000003F7BC4305FA03FC4CEA040491F803C06C
:10031000BCF1280F06D14FF0010C0CFA00FCC2F81A
:1003200014C00AE091F803C0BCF1480F05D14FF0AA
:10033000010C0CFA00FCC2F810C0401C0828D1D3F4
:100340001460B1F800C0BCF1FF0F34DD5468002028
:100350002EE000F1080C4FF0010808FA0CF3B1F898
:1003600000C00CEA03069E4221D183004FF00F0C1F
:100370000CFA03F7BC4305FA03FC4CEA040491F8B9
:1003800003C0BCF1280F05D100F1080C08FA0CF8E5
:10039000C2F8148091F803C0BCF1480F07D100F1F6
:1003A000080C4FF0010808FA0CF8C2F81080401C45
:1003B0000828CED35460BDE8F08102460020D368FF
:1003C0000B400BB1012000E00020704741617047F5
:1003D0000161704700BFFEE708B50121042000F06D
:1003E00069F810208DF803000420ADF80000032008
:1003F0008DF8020069460248FFF754FF08BD00006F
:100400000008014000BFFEE77047000070B5002102
:1004100000230F22C47804B3154C246804F4E0646C
:10042000C4F5E064210AC1F10403CA40447804FA27
:1004300003F184781440214309010E4C0678A1553C
:10044000047804F01F050124AC4005786D11AD005F
:1004500005F1E025C5F8004109E0047804F01F0526
:100460000124AC40044D0678761145F8264070BD55
:100470000CED00E000E400E080E100E0024901430F
:10048000024A1160704700000000FA050CED00E020
:100490007047000029B1064AD2690243044BDA6171
:1004A00004E0034AD2698243014BDA6170470000DD
:1004B0000010024029B1064A92690243044B9A6136
:1004C00004E0034A92698243014B9A61704700003D
:1004D00000100240704710B500F002F810BD000097
:1004E0000CB50020019000903348006840F4803043
:1004F0003149086000BF3048006800F400300090C7
:100500000198401C0190009818B90198B0F5A06FAF
:10051000F1D12948006800F4003010B101200090AA
:1005200001E0002000900098012843D12348006892
:1005300040F01000214908600846006820F00300E0
:1005400008600846006840F0020008601A484068E9
:10055000194948600846406848600846406840F4C9
:10056000806048600846406820F47C104860084677
:10057000406840F4E81048600846006840F0807029
:10058000086000BF0C48006800F000700028F9D037
:100590000948406820F00300074948600846406861
:1005A00040F00200486000BF0348406800F00C00C3
:1005B0000828F9D10CBD00000010024000200240C4
:1005C0007047000010B51348006840F00100114961
:1005D000086008464068104908400E4948600846CF
:1005E00000680E4908400B4908600846006820F47E
:1005F000802008600846406820F4FE0048604FF400
:100600001F008860FFF767FF4FF000600449086033
:1006100010BD0000001002400000FFF8FFFFF6FED2
:1006200008ED00E010B50121880700F037F8012837
:1006300003D10121800700F001F810BDCA430282F6
:10064000704721B1028842F00102028004E0028872
:100650004FF6FE731A4002807047F0B504460D460F
:1006600016461F463B4632462946204600F005F80E
:10067000208940F480402081F0BD30B50C46002137
:100680000189C9B24FF6FF7505EA032515432543D5
:100690002943018130BD0146888C704730B5024640
:1006A000002000230024158A05EA0103958905EA44
:1006B000010413B10CB1012000E0002030BD1AB1DB
:1006C00083890B43838102E083898B438381704755
:1006D000002202881D4B98420ED01D4B98420BD031
:1006E000B0F1804F08D01B4B984205D01A4B98426E
:1006F00002D01A4B984204D14FF68F731A404B88A0
:100700001A43174B984207D0164B984204D04FF625
:10071000FF431A40CB881A4302808B8883850B885D
:1007200003850A4B98420BD0094B984208D00E4BD8
:10073000984205D00D4B984202D00D4B984201D102
:100740000B7A03860123838270470000002C01404E
:10075000003401400004004000080040000C00404C
:1007600000100040001400400040014000440140DF
:10077000004801401FB501210846FFF78BFE00230A
:100780004FF400421946D003FFF767FF0020ADF891
:100790000A00ADF806000920ADF808000020ADF809
:1007A00004008DF80C0001A94FF08040FFF790FF86
:1007B000012211469007FFF782FF4FF4A060FFF778
:1007C0005DFE1C208DF8000001208DF803008DF8DF
:1007D00001008DF802006846FFF718FE0121880726
:1007E000FFF72FFF1FBD10B54FF08040FFF753FFFD
:1007F00010BD000010B504210648FFF7DEFD20B94A
:1008000004210448FFF7E4FD03E004210148FFF759
:10081000DDFD10BD0008014000BFFEE70024FFF72A
:10082000DBFDFFF7A7FF08E0FFF7DDFF0446FFF75A
:10083000DAFFA04201DDFFF7DDFFF5E75C08000805
:1008400000000020040000002801000860080008E3
:1008500004000020640600004401000800000000BD
:04000005080000ED02
:00000001FF
