:020000040800F2
:100000006806002089010008750500082105000820
:1000100071050008430200081D08000800000000E8
:10002000000000000000000000000000CD060008F5
:100030004702000800000000FD050008B90700089D
:10004000A3010008A3010008A3010008A301000800
:10005000A3010008A301000849020008AD0200083E
:10006000A3010008A3010008A3010008A3010008E0
:10007000A3010008A3010008A3010008A3010008D0
:10008000A3010008A3010008A3010008A3010008C0
:10009000A3010008A3010008A3010008A3010008B0
:1000A000A3010008A3010008A3010008A3010008A0
:1000B000A3010008A3010008A3010008A301000890
:1000C000A3010008A3010008A3010008A301000880
:1000D000A3010008A3010008A3010008A301000870
:1000E00085020008A3010008A301000800F002F83F
:1000F00000F03AF80AA090E8000C82448344AAF188
:100100000107DA4501D100F02FF8AFF2090EBAE885
:100110000F0013F0010F18BFFB1A43F0010318473B
:100120002807000048070000103A24BF78C878C1AB
:10013000FAD8520724BF30C830C144BF04680C60ED
:10014000704700000023002400250026103A28BF35
:1001500078C1FBD8520728BF30C148BF0B60704739
:100160001FB51FBD10B510BD00F031F81146FFF7E7
:10017000F7FF00F055FB00F04FF803B4FFF7F2FF74
:1001800003BC00F057F800000948804709480047C1
:10019000FEE7FEE7FEE7FEE7FEE7FEE7FEE7FEE737
:1001A000FEE7FEE704480549054A064B7047000094
:1001B000BD070008ED000008680000206806002068
:1001C000680200206802002070477047704775463B
:1001D00000F02CF8AE4605006946534620F00700B3
:1001E000854618B020B5FFF7DDFFBDE820404FF091
:1001F00000064FF000074FF000084FF0000B21F011
:100200000701AC46ACE8C009ACE8C009ACE8C009DD
:10021000ACE8C0098D46704710B50446AFF30080C6
:100220002046BDE81040FFF7A8BF00000048704717
:100230000800002001491820ABBEFEE7260002009E
:10024000704700BFFEE7704710B5012000F052F87C
:1002500001280ED10121094800F055F948B90021C3
:10026000064800F050F920B105480088401E0449B6
:100270000880012000F038F810BD0000000C01409B
:100280000200002010B54FF4804000F033F8012840
:1002900008D105480088401C034908804FF480407D
:1002A00000F022F810BD00000000002010B5022070
:1002B00000F020F801280ED10221094800F023F9AE
:1002C00048B90021064800F01EF920B10548008811
:1002D000401C04490880022000F006F810BD000010
:1002E000000C014002000020014908607047000036
:1002F00014040140014600200022074B1B6803EA5A
:100300000102054B14331B680B4013B10AB10120E5
:1003100000E0002070470000000401400021234954
:100320008279002A3AD00A46126803689A430B463B
:100330001A600A1D126803689A430B1D1A6002793D
:1003400011440A6803681A430A60184A083212689E
:1003500003689A43154B08331A601A1D1268036824
:100360009A43124B0C331A604279102A0ED11A1F8D
:10037000126803681A430D4B08331A601A1D12687D
:1003800003681A43094B0C331A600DE007494279A0
:1003900011440A6803681A430A6005E002791144AF
:1003A0000A6803689A430A6070470000000401402D
:1003B00030B500228B071C0F0F2303FA04F20B4BFE
:1003C0008C1053F824309343084C8D1044F825309A
:1003D00023468C1053F824308C07240F00FA04F4C1
:1003E0002343024C8D1044F8253030BD08000140F5
:1003F0002DE9F041024600250026002000230024BC
:10040000002791F803C00CF00F0591F803C00CF021
:10041000100CBCF1000F03D091F802C04CEA0505A6
:1004200091F800C0BCF1000F31D0146800202BE01F
:100430004FF0010C0CFA00F3B1F800C00CEA03060F
:100440009E4220D183004FF00F0C0CFA03F7BC43FF
:1004500005FA03FC4CEA040491F803C0BCF1280F30
:1004600006D14FF0010C0CFA00FCC2F814C00AE0EF
:1004700091F803C0BCF1480F05D14FF0010C0CFA04
:1004800000FCC2F810C0401C0828D1D31460B1F899
:1004900000C0BCF1FF0F34DD546800202EE000F1F5
:1004A000080C4FF0010808FA0CF3B1F800C00CEA90
:1004B00003069E4221D183004FF00F0C0CFA03F784
:1004C000BC4305FA03FC4CEA040491F803C0BCF1F8
:1004D000280F05D100F1080C08FA0CF8C2F81480B6
:1004E00091F803C0BCF1480F07D100F1080C4FF0A0
:1004F000010808FA0CF8C2F81080401C0828CED376
:100500005460BDE8F0810246002093680B400BB1B7
:10051000012000E00020704701617047C160704712
:1005200000BFFEE708B50121042000F069F81020A3
:100530008DF803004FF6FF70ADF8000003208DF832
:10054000020069460448FFF753FF4FF6FF71024867
:10055000FFF7E2FF08BD00000008014010B50446A7
:10056000E04381B20148FFF7D9FF10BD0008014008
:1005700000BFFEE77047000070B5002100230F2286
:10058000C47804B3154C246804F4E064C4F5E06452
:10059000210AC1F10403CA40447804FA03F18478C3
:1005A0001440214309010E4C0678A155047804F04B
:1005B0001F050124AC4005786D11AD0005F1E02563
:1005C000C5F8004109E0047804F01F050124AC409F
:1005D000044D0678761145F8264070BD0CED00E01C
:1005E00000E400E080E100E002490143024A1160BA
:1005F000704700000000FA050CED00E070470000B5
:1006000029B1064A92690243044B9A6104E0034A05
:1006100092698243014B9A617047000000100240CA
:10062000024908880021014A118070470200002019
:100630001FB501210820FFF7E3FF01210846FFF75E
:10064000DFFF48208DF80F000320ADF80C008DF877
:100650000E0003A91C48FFF7CBFE00210120FFF785
:10066000A7FE01210846FFF7A3FE03200190012009
:100670008DF80A0000208DF808000C208DF8090084
:1006800001A8FFF74BFE4FF4A060FFF7ADFF062077
:100690008DF8000001208DF803008DF801008DF821
:1006A00002006846FFF768FF07208DF80000012070
:1006B0008DF803008DF8010002208DF802006846D5
:1006C000FFF75AFF1FBD0000000C0140704710B536
:1006D00000F002F810BD00000CB500200190009061
:1006E0003348006840F480303149086000BF30482A
:1006F000006800F4003000900198401C01900098C0
:1007000018B90198B0F5A06FF1D12948006800F43C
:10071000003010B10120009001E00020009000980E
:10072000012843D12348006840F0100021490860A7
:100730000846006820F0030008600846006840F0A2
:10074000020008601A484068194948600846406835
:1007500048600846406840F4806048600846406849
:1007600020F47C1048600846406840F4E810486077
:100770000846006840F08070086000BF0C480068C0
:1007800000F000700028F9D00948406820F003000C
:10079000074948600846406840F00200486000BFD2
:1007A0000348406800F00C000828F9D10CBD000097
:1007B00000100240002002407047000010B51348AE
:1007C000006840F00100114908600846406810497F
:1007D00008400E494860084600680E4908400B4929
:1007E00008600846006820F48020086008464068D9
:1007F00020F4FE0048604FF41F008860FFF767FF99
:100800004FF000600449086010BD00000010024075
:100810000000FFF8FFFFF6FE08ED00E000BFFEE776
:10082000FFF780FEFFF704FF0AE0FFF7F9FE054936
:10083000098808440349088008460088FFF78EFEAF
:10084000F3E7000004000020680800080000002012
:1008500008000000280100087008000808000020B7
:1008600060060000440100080000000000000000D5
:04000005080000ED02
:00000001FF
